:020000040800F2
:10000000F8040020AD0100086F14000893130008E5
:100010006D1400080D080008AD170008000000006E
:100020000000000000000000000000007314000841
:100030000F08000800000000711400087514000883
:10004000C7010008C7010008C7010008C701000870
:10005000C7010008C7010008C7010008C701000860
:10006000C7010008C7010008C7010008C701000850
:10007000C7010008C7010008C7010008C701000840
:10008000C7010008C7010008C70100080000000000
:10009000000000000000000000000000C701000890
:1000A000C7010008C7010008C7010008C701000810
:1000B000C7010008C7010008C7010008C701000800
:1000C000C7010008C7010008C7010008C7010008F0
:1000D000C7010008C7010008C701000800000000B0
:1000E000C7010008C7010008C701000800000000A0
:1000F000000000000000000000000000C701000830
:1001000000000000C7010008C7010008C70100087F
:1001100000000000000000000000000000000000DF
:10012000C7010008C7010008C7010008C70100088F
:10013000C7010008000000000000000000000000EF
:10014000000000000000000000000000C7010008DF
:10015000C7010008C7010008C7010008C70100085F
:10016000C7010008C70100080000000000000000EF
:10017000000000000000000000000000000000007F
:1001800000000000C701000800000000000000009F
:10019000C7010008DFF810D000F014FB004800474A
:1001A000AD200008AFF30080F80400200648804727
:1001B00006480047FEE7FEE7FEE7FEE7FEE7FEE74C
:1001C000FEE7FEE7FEE7FEE70115000895010008DF
:1001D0002DE9F05F0546002092469B46884606467C
:1001E000814640241BE0284641464746224600F00F
:1001F000FFF853465A46C01A914110D3114618468B
:10020000224600F0E6F82D1A67EB01084F46224619
:100210000120002100F0DDF817EB00094E41201EFF
:10022000A4F10104DFDC484631462A464346BDE8D6
:10023000F09FD2B201E000F8012B491EFBD27047BB
:100240000022F6E710B513460A4604461946FFF7A2
:10025000F0FF204610BD421C10F8011B0029FBD105
:10026000801A70472DE9FE4F81EA030404F0004430
:1002700021F0004100944FF0000B23F0004350EABE
:1002800001045ED052EA03045BD0C3F30A54C1F305
:100290000A552C44A4F2F3340194A0FB0254C1F398
:1002A000130141F48011C3F3130343F4801301FBE2
:1002B000024400FB034E840A970A44EA815447EA49
:1002C0008357A4FB076802958D0A05FB07854FEA53
:1002D000932C04FB0C542705029D4FEA065847EA6D
:1002E0001637B5EB08056EEB070C870E920E47EA42
:1002F000811742EA8312A7FB0201B6EB0B0164EB04
:1003000000042B0D43EA0C335E1844EB1C50DA4614
:100310005146E7FB0201C5F313044FEA0B3343EAEE
:1003200014534FEA0432019C43EA0603A4F10C047F
:100330000294009CCDE900B400F0B0F803B0BDE831
:10034000F08F00200146F9E700F0004230F0004055
:100350000AD0C10D01F56071C0F3160042EA0151E7
:10036000C20840071143704700200146704701F062
:10037000004330B421F0004150EA010206D00A0DDA
:10038000A2F56072C1F31301002A02DC30BC002028
:100390007047440F44EAC104C100E01830BC00EBD0
:1003A000C25000F035B830B50B460146002020227F
:1003B000012409E021FA02F59D4205D303FA02F572
:1003C000491B04FA02F52844151EA2F10102F1DCD2
:1003D00030BD202A04DB203A00FA02F100207047E9
:1003E0009140C2F1200320FA03F319439040704773
:1003F000202A04DB203A21FA02F00021704721FA7A
:1004000002F3D040C2F120029140084319467047E0
:100410000029A8BF7047401C490008BF20F0010018
:10042000704710B4B0FA80FC00FA0CF050EA0104F6
:1004300004BF10BC704749B1CCF1200421FA04F488
:1004400011FA0CF118BF012121430843A3EB0C0161
:10045000CB1D4FEA00614FEA102042BF002010BCC4
:10046000704700EBC35010440029A4BF10BC704774
:10047000401C490008BF20F0010010BC704710B5B7
:10048000141E73F1000408DA401C41F100019218B7
:100490005B411A4301D120F0010010BD2DE9F04D60
:1004A00092469B4611B1B1FA81F202E0B0FA80F2B5
:1004B00020329046FFF78DFF04460F4640EA0A00BF
:1004C00041EA0B0153465A46084313D0114653EAFA
:1004D000010019D0C8F140025046FFF789FF0546D8
:1004E0000E46504659464246FFF773FF084305D073
:1004F000012004E020463946BDE8F08D0020054388
:1005000046EAE0762C4337430A986305E40AA0EBF9
:1005100008000022FD0A44EA47540A3002D50020B0
:100520000146E9E7010510196941DDE908450019AF
:100530006941BDE8F04DA2E72DE9FE4F804681EA12
:100540000300C00F0C46009021F0004123F000454D
:10055000B8EB0200A94105D24046214690461C4610
:100560000B46024623F00040104347D0270DC7F347
:100570000A00C3F30A510290401A019040286BDA36
:10058000C3F3130040F4801B0098924620B100236F
:10059000D2EB030A63EB0B0B01985946C0F1400202
:1005A0005046FFF716FF06460D4650465946019A3B
:1005B00000F01AF910EB08006141002487EA11529B
:1005C00084EAE7731A4340D0009A62B3019A012A81
:1005D0004FEA075215DC001B61EB02014FF00042AD
:1005E00002EA0752CDE90042001C41F58011324673
:1005F0002B46FFF753FF03B0BDE8F08F404621467E
:10060000F9E7001B61EB0201001C41F580130018A3
:100610005B412018A2F5001747EB030140EAD570B3
:10062000B6196D4111E06D084FEA360645EAC0750E
:100630004FEA0752001B61EB0201001C41F58011DB
:1006400049084FEA30000019514132462B4603B0A9
:10065000BDE8F04FFFF713BF0098012240000023D0
:10066000D0EB020263EBE073009821464FEAE0749E
:10067000B8EB000061EB0401E9E783F000435BE7BE
:1006800081F0004158E72DE9F04D81EA030404F0C0
:10069000004B21F0004514464FF0000A23F00041C2
:1006A00050EA050220D054EA01021DD0C5F30A57D2
:1006B0000246C5F31303C1F31300C1F30A5640F415
:1006C000801543F48013A7EB0608101BD64608F2EA
:1006D000FD3873EB050002D308F1010801E0921820
:1006E0005B41B8F1000F03DA00200146BDE8F08D50
:1006F00000204FF48011064684460EE0171B73EB72
:10070000050705D3121B63EB050306434CEA010CF6
:1007100049084FEA300092185B4150EA0107EDD1D9
:1007200052EA030012D082EA040083EA050108437A
:1007300005D0101BAB4106D20122002306E00022A7
:100740004FF0004302E06FF0010253101AEB060075
:100750004CEB085110EB0A0041EB0B01BDE8F04DEA
:10076000FFF78DBEC1F30A52C1F3130140F2FF330C
:1007700041F480119A4202DA00200146704740F2AB
:1007800033439A42A2F2334202DC5242FFF730BEB8
:10079000FFF71FBE30B5041E71F1000404DB4FF0FB
:1007A0000044404264EB0101141E73F1000405DBB8
:1007B0001C464FF00043524263EB0403994208BFCA
:1007C000904230BD064C074D06E0E06840F0010362
:1007D00094E8070098471034AC42F6D3FFF7DEFCEC
:1007E0002C2200084C220008202A06DBCB17203AD6
:1007F00041FA02F043EAE07306E041FA02F3D04026
:10080000C2F120029140084319467047FEE7704745
:1008100070B5044600F0E2F80546601C02D00448BA
:100820000078044400F0DAF8401BA042FAD370BD0F
:10083000040000202DE9F84F00224FF001080325A5
:100840004FF00F0E0B6808FA02F42340A34271D157
:100850004E68012E05D0022E03D0112E01D0122E8B
:1008600015D18668570005FA07FC26EA0C06D1F870
:100870000CC00CFA07FC4CEA060CC0F808C046682D
:10088000A6430C79C4F30014944034434460C66812
:10089000570005FA07FC8C6826EA0C06BC40344376
:1008A000C4604C68022C01D0122C13D1D40800EB88
:1008B0008404A346D4F8209054074FEAD46A0EFA71
:1008C0000AF629EA06090E6906FA0AF646EA090650
:1008D000CBF8206004680E7924EA0C0406F00306C5
:1008E000BE40264306604C68E40056D52E4C266870
:1008F00046F480462660246822F0030604F480440F
:1009000000942A4C3444A446D4F808489607370F7C
:100910000EFA07F6B443264EB04201D1002615E088
:10092000244EB04201D1012610E0234EB04202D144
:1009300002260BE031E0214EB04201D1032605E052
:100940001F4EB04201D1042600E00726BE402643D8
:10095000CCF808681B4E34684F689C43FF0300D5F1
:100960001C433460174E361D34684F689C43BF03E8
:1009700000D51C433460134E083634684F689C43DE
:10098000FF0200D51C4334600E4E0C3634684F68AD
:100990009C43BF0200D51C433460521C102AFFF454
:1009A00051AFBDE8F88F00004438024000300140EC
:1009B000000002400004024000080240000C024017
:1009C00000100240003C01400069084000D00120B6
:1009D00070470AB1816170470904FBE701488068EC
:1009E000704700000400002002488168027811442A
:1009F00081607047040000200B4810B5016841F485
:100A000000710160016841F480610160016841F496
:100A100080710160032000F063F8002000F006F808
:100A200000F024F8002010BD003C024070B50D4DD0
:100A300004464FF47A712878B1FBF0F00A4909684E
:100A4000B1FBF0F000F0F6FA48B9102C07D2002202
:100A50002146501E00F024F800206C6070BD01207B
:100A600070BD000004000020100000200B4882B080
:100A7000016841F480410160006800F4804000900A
:100A80000648001F016841F080510160006800F0D5
:100A900080500090072002B000F022B84438024095
:100AA000F0B40E4B1B680C46C3F30223C3F10705D9
:100AB000042D00D90425191D072901D2002300E0C7
:100AC000DB1E012606FA05F1491E214099409E4091
:100AD000761E16403143F0BC00F07EBE0CED00E007
:100AE000064900F0070208684FF6FF03184040EA85
:100AF0000220034A10430860704700000CED00E03C
:100B00000000FA052DE9F0470E46050065D0DFF834
:100B10001481D8F80000F7B200F00F00B04207D2FD
:100B200088F80070D8F8000000F00F00B04254D1EF
:100B300028683D4C810712D5400703D5206840F452
:100B4000E05020602878000703D5206840F460401A
:100B500020602068A96820F0F00008432060287811
:100B6000C0072DD0304968680839012812D0022802
:100B700013D0032811D00968890700292DDA2168CC
:100B800021F0030101432160FFF728FF814641F274
:100B9000883A0EE009688903EFE709688901ECE704
:100BA000FFF71CFFA0EB0901514502D90320BDE866
:100BB000F0872068696800F00C00B0EB810FEFD17E
:100BC000D8F80010404601F00F01B14207D9077074
:100BD000006800F00F00B04201D00120E7E728785C
:100BE000400705D52068E96820F4E05008432060FC
:100BF0002878000706D52068296920F4604040EA7B
:100C0000C100206000F038F82168084AC1F30311E0
:100C1000515CC8400649086006480068FFF706FFB7
:100C20000020C4E7003C02400838024014220008BB
:100C300010000020080000200448054900680968E9
:100C4000044AC1F38221515CC84070471000002063
:100C50000838024024220008044805490068096851
:100C6000044AC1F34231515CC84070471000002073
:100C70000838024024220008154810B5006810F01A
:100C80000C02144813D04110042A0FD0082A0ED1A8
:100C90000F4C241F2268236802F03F025B0207D535
:100CA0002068C0F38810A0FB010106E0084610BDD3
:100CB0002168C1F38811A1FB00010023FFF788FA26
:100CC0002168C1F30141491C4900B0FBF1F010BD9E
:100CD000083802400024F4002DE9F84F04006ED0DB
:100CE0002078DFF83C93C007A9F104054AD009F148
:100CF00004000168C1F38101012908D00068C0F334
:100D0000810002280AD1D9F80000400206D52868DF
:100D1000800337D560680028E1D033E06068B0F523
:100D2000803F10D0B0F5A02F286810D020F480307C
:100D30002860286820F4802028606068A8B1FFF748
:100D40004DFE06460DE0286840F48030F4E740F49C
:100D500080202860F7E700BFFFF740FE801B642873
:100D600073D828688003F7D50CE0FFF737FE0646F6
:100D700005E000BFFFF732FE801B6428F0D828682A
:100D80008003F7D42078DFF89C8280074FF0000AB8
:100D90003ED5A348001D016811F00C0F08D0006873
:100DA000C0F3810002280BD1D9F80000400207D41B
:100DB0002868800716D5E068012800D112E02BE1F1
:100DC000E068B8B10120C8F80000FFF707FE06464A
:100DD00005E000BFFFF702FE801B0228C0D828688C
:100DE0008007F7D52868216920F0F80040EAC100A3
:100DF00028600DE0C8F800A0FFF7F0FD064604E00B
:100E0000FFF7ECFD801B02281FD828688007F7D465
:100E10002078000722D5824E83486169703671B10F
:100E200001210160FFF7DAFD074604E0FFF7D6FD78
:100E3000C01B022809D830688007F7D50EE0C0F83B
:100E400000A0FFF7CBFD074605E082E0FFF7C6FDF7
:100E5000C01B02287DD830688007F7D4207840076F
:100E600068D5DFF8BCB100270BF13C0BDBF80000C4
:100E7000C0000BD4DBF8001041F08051CBF800101B
:100E8000DBF80000012700F080500090674E3068CA
:100E9000C00510D4306840F480703060FFF79EFDCC
:100EA000009005E0FFF79AFD0099401A022850D8FB
:100EB0003068C005F6D55A4EA0686C3601280FD0B0
:100EC0000528306810D020F001003060306820F034
:100ED00004003060A068B8B1FFF780FD00900FE01B
:100EE000306840F00100F4E740F004003060F7E7BC
:100EF000FFF774FD0099411A41F28830814266D8AB
:100F000030688007F4D50EE0FFF768FD009007E039
:100F1000FFF764FD0099411A41F28830814256D8AA
:100F200030688007F4D42FB1DBF8001021F0805135
:100F3000CBF80010A069C8B33949091D0968C1F38D
:100F4000810102294AD00228504607D0C8F8600023
:100F500000E03CE0FFF742FD04463BE04746C8F8AE
:100F60006000FFF73BFD064605E000BFFFF736FDDA
:100F7000801B02282BD828688001F7D4D4E9070108
:100F80000843A16A2A4A490802EB0141626A41EA20
:100F90008211084394F82C1040EA0161C9F800104E
:100FA00001203866FFF71AFD044606E036E000BF70
:100FB000FFF714FD001B022809D828688001F7D527
:100FC0002CE000BFFFF70AFD001B022802D9032016
:100FD000BDE8F88F28688001F4D41FE00128F7D01D
:100FE000D9F80000E26900F48001914214D1226A2C
:100FF00000F03F0191420FD147F6C071626A014093
:10100000914209D1A26A00F44031914204D1E16ACF
:1010100000F07060884201D00120D9E70020D7E7B6
:101020000438024000004742800E474200700040F2
:101030000000FFFF10B5401EB0F1807F01D30120FA
:1010400010BD4FF0E02460610F21601700F0C4FB79
:101050000020A06107202061002010BD70B590F82D
:101060003C20012A2CD0012480F83C40022280F848
:101070003D2003685A689D6822F070060A68324372
:101080005A60104B02689A420ED0B2F1804F0BD0DA
:101090000D4B9A4208D00D4B9A4205D00C4B9A4208
:1010A00002D00C4B9A4204D1496825F080031943C1
:1010B000916080F83D40002180F83C10084670BDEA
:1010C000022070BD00000140000400400008004004
:1010D000000C00400040014010B5040003D094F81B
:1010E0003D0010B107E0012010BD002084F83C0055
:1010F000204600F00DF8022084F83D00211D2068F4
:1011000000F00CFA012084F83D00002010BD000022
:1011100008B500680649884208D10648016841F0D0
:1011200004010160006800F00400009008BD0000A8
:10113000000800404038024070B5044690F83C007A
:10114000012817D0012584F83C50022084F83D0086
:101150002068826822F0770222F47F428260086869
:10116000502830D00DDC20284DD005DC98B3102855
:101170003BD148E0022070BD302844D0402834D113
:1011800039E0602828D0702806D0B0F5805F2CD0D8
:10119000B0F5005F29D10AE0CB68D1E901212068D0
:1011A00000F008FA2068816841F0770109E0CB6817
:1011B000D1E90121206800F0FDF92068816841F43F
:1011C0008041816011E0CA684968206800F004FA33
:1011D0005021206807E016E0CA684968206800F0DE
:1011E0000CFA6021206800F0EFF984F83D500020EF
:1011F00084F83C0070BDCA684968206800F0ECF9CA
:1012000040212068EFE7226801461046EBE770B501
:10121000040004D094F83900002510B106E0012044
:1012200070BD84F83850204600F022F8242084F85D
:1012300039002068C16821F40051C160204600F0E7
:10124000EFF92068016921F490410161206841694A
:1012500021F02A0141612068C16841F40051C16058
:10126000E563202084F8390084F83A00002070BD3E
:1012700010B586B0044614216846FEF7E1FF134915
:101280002068884220D112480021026842F40032CE
:101290000260006800F4003005900D4810380268C4
:1012A00042F001020260006800F0010005900C208D
:1012B00000900220CDE90101032003900720049053
:1012C00069460448FFF7B6FA06B010BD0044004076
:1012D00040380240000002402DE9F843044690F8EF
:1012E00039001F4616460D46202850D1B5B1AEB183
:1012F00094F8380001284AD0012084F838004FF0D3
:101300000008C4F83C80212084F83900FFF766FB10
:10131000A6848146E68484F8388026E00120BDE872
:10132000F883E08C401EE084A0684B46B0F5805FF7
:101330004FF000024FF080012046009703D000F0EC
:1013400003FAE8B90DE000F0FFF9C8B92888216870
:10135000C0F308004860206908B16D1C05E0AD1CB1
:1013600003E0216815F8010B4860E08C0028D8D113
:101370004B46002240212046009700F0E5F908B1D5
:101380000320CCE7202084F839000020C7E70220A2
:10139000C5E7FEE770B586B014216846FEF750FF3A
:1013A0001A480024016841F004010160016801F05D
:1013B00004010591016841F0010101600068144ECB
:1013C00000F001004FF49075059022462946304602
:1013D000FFF7FFFA4FF40050CDE9000469460D48CD
:1013E0000294FFF727FA01200095CDE90104694630
:1013F00030460394FFF71EFA7015CDE900046946E4
:1014000030460294FFF716FA06B070BD303802403D
:10141000000002400008024010B586B000241248C7
:10142000009401940294039404940E49059401607D
:101430005321C0E901144FF6FF71C0E90314846120
:10144000FFF74AFE4FF48050009069460648FFF7C8
:1014500073FE049404A904480594FFF7FFFD06B049
:1014600010BD00000008004014000020FEE7704797
:1014700070477047FFF7B8BA30B593B0302168466F
:10148000FEF7DEFE14210CA8FEF7DAFE1A4800244F
:10149000016841F080510160006800F080501190B7
:1014A0001648016821F4404141F4004101600068A0
:1014B000022500F440401190012003901020009577
:1014C00006950490CDE907404FF4A87009900420D8
:1014D0000A9007200B906846FFF7FEFB0F20CDE92E
:1014E0000C05E802CDE90E4002210CA81094FFF78C
:1014F00009FB13B030BD00004038024000700040CE
:101500000548016841F47001016003494FF0006033
:10151000803908607047000088ED00E0F0B502688F
:101520001D4B1E4C9F031E4D1E4E984207D0B842C5
:1015300005D0A04203D0A84201D0B04204D122F08D
:10154000700C4A6842EA0C02984210D0B8420ED0A1
:10155000A0420CD0A8420AD0B04208D0124CA042FF
:1015600005D0124CA04202D0114CA04203D122F46B
:101570004074CA6822434C6922F080022243026010
:101580008A68C2620A688262984201D1096901636D
:1015900001214161F0BD0000000001400004004055
:1015A00000080040000C00400040014000440140A1
:1015B0000048014010B5846842EA032224F47F44C5
:1015C0000A432243826010BD826822F070020A43FF
:1015D00042F007018160704710B5036A046A24F085
:1015E00001040462846924F0F00444EA021423F044
:1015F0000A020A438461026210BD10B5036A23F037
:10160000100303628369046A23F4704343EA0232DD
:1016100024F0A00343EA01118261016210BD0000C1
:101620002DE9F041044600680169E26821F4405167
:10163000114301612169A068E269084361691143AE
:1016400008432168CA6849F20C639A430243CA609E
:1016500020684169A26921F4407111434161E06948
:10166000192764253226B0F5004F354A35492068E0
:101670004FF0000806D0884201D0904236D1FFF7E3
:10168000EBFA35E0884201D0904202D1FFF7E4FA4C
:1016900001E0FFF7D1FA61684A18A0FB070148EBA7
:1016A0000803FEF795FD0146B0FBF5F00201B1FB22
:1016B000F5F06FF01803584301EB800006EBC00013
:1016C000B0FBF5F000F0F80002EB4002B1FBF5F0E2
:1016D000584301EB800006EBC000B0FBF5F000F0D2
:1016E0000700216810448860BDE8F081FFF7A4FA84
:1016F00061688B0F8A00A0FB0701FEF769FD0146B8
:10170000B0FBF5F06FF01802504301EB800006EBE0
:101710000010B0FBF5F000F0F002B1FBF5F002EBC9
:101720000012B1FBF5F06FF01803584301EB800095
:1017300006EB0010B0FBF5F000F00F00D1E7000061
:1017400000140140001001402DE9F0419846174671
:101750000E460446069D1DE0681C1BD02DB1FFF708
:101760003DF9A0EB0800A84214D92068C16821F413
:10177000D071C1602068416921F0010141612020E0
:1017800084F8390084F83A00002084F838000320F7
:10179000BDE8F0812068006836EA000004D000202F
:1017A000B842D9D00020F3E70120F9E7FEE70000B6
:1017B0000FB4084B10B504A902AA039800F0EEF884
:1017C000044602A9002000F06CFC204610BC5DF825
:1017D00014FB0000A32000080907090E002804DB01
:1017E00000F1E02080F80014704700F00F0000F1D5
:1017F000E02080F8141D704702E008C8121F08C1DD
:10180000002AFAD170477047002001E001C1121F81
:10181000002AFBD1704700002DE9FF5F82B0002154
:10182000DDE90430020DDDF840B0034318D044F682
:101830001050A2F2FF3242431514119801281FD014
:10184000A5EB0B00401C5FEA000A4FF000064E4F6C
:10185000DFF83891B046504615D5CAF1000413E0C0
:10186000119801244AA3012801D16FEA0B010298C3
:10187000119AC0E90031C0E9024206B0BDE8F09F0C
:10188000CBF10000DFE704460021404A491842EB53
:101890000450CDE9001012E0E00707D032463B4685
:1018A00040464946FEF7DEFC8046894632463B46C6
:1018B00010461946FEF7D6FC06460F466410002C6B
:1018C000EAD1DDE90401DDE90023BAF1000F06DA0F
:1018D000FEF7C8FC42464B46FEF7C4FC05E0FEF7A7
:1018E000D2FE42464B46FEF7CEFE04460E4600228E
:1018F000284BFEF74FFF03D84FF0FF30014607E0BB
:101900000022254B20463146FEF716FEFEF72AFF41
:10191000102409E0002C0ADB0A220023FEF758FC01
:10192000039B30321A55641E50EA0102F2D1641C46
:10193000039AC4F111031444119A012A03D001221D
:1019400008430DD10AE0084304D000204FF0110BEA
:10195000119072E7A3EB0B056D1E0DE05B4504DDF6
:101960004FF0000205F1010504E003DA4FF0000238
:10197000A5F10105002AECD002981199C0E90231C5
:10198000C0E9004579E70000000014400000F03F86
:10199000300000000000F0430000E03F2DE9FF4F61
:1019A00095B09A46884606460025EEE1252877D16F
:1019B00000242746F94A0121039400E0044316F865
:1019C000013F203B01FA03F01042F7D130782A287A
:1019D00011D06FF02F033078A0F13002092A16D809
:1019E000039A44F0020402EB820203EB4202104429
:1019F000761C0390EFE758F8042B0392002A03DAD1
:101A0000504244F40054039044F00204761C3078B1
:101A10002E2816D116F8010F44F004042A280DD000
:101A20006FF02F023078A0F13003092B09D807EBB3
:101A3000870302EB4303C718761CF3E758F8047BCF
:101A4000761C30786C280FD006DC4C2817D068281C
:101A50000DD06A2814D104E0742810D07A280FD150
:101A60000DE044F400140AE044F4801401E044F46E
:101A700040147278824202D104F58014761C761CE0
:101A8000307866280BD013DC582877D009DC002882
:101A900075D04528F6D04628F4D047281AD193E1CE
:101AA00018E0632835D0642879D0652812D18BE1FD
:101AB000702873D008DC6728F1D069286FD06E28B1
:101AC0000DD06F2806D1ACE073282CD0752874D0C7
:101AD000782853D05246179990476D1C54E1C4F3AF
:101AE0000250022809D003280DD0D8F8001004288D
:101AF0000DD00D6008F1040846E1D8F80010EA178F
:101B0000C1E90052F6E7D8F800100D80F2E70D7039
:101B1000F0E718F8041B8DF8001000208DF8010084
:101B2000EB46012003E058F804BB4FF0FF3061079B
:101B30004FF0000102D40DE009F101018946B942DC
:101B40000FDA8145F8DB1BF809100029F4D108E011
:101B500009F1010189468142FADB1BF809100029CD
:101B6000F6D103985346A0EB090721463846179A49
:101B700000F080FA284400EB090507E044E008E1A2
:101B80000DE01BF8010B524617999047B9F1010976
:101B9000F7D2534621463846179AF2E039E00A2137
:101BA000C4F302524FF0000B0091022A06D058F8FD
:101BB000040BC117032A09D00AE023E008F107004B
:101BC00020F00702F2E80201904605E000B2C117DA
:101BD000042A01D140B2C117002906DA0A460021C1
:101BE000404261EB02012D2202E0220504D52B22A6
:101BF0008DF80420012203E0E20701D02022F7E75C
:101C0000914657E00A2100E010214FF0000B0091AF
:101C10000BE010214FF0000B44F004040827009162
:101C200003E008204FF0000B0090C4F30252022A98
:101C300005D058F8040B0021032A08D008E008F169
:101C4000070020F00702F2E80201904603E080B2AC
:101C5000042A00D1C0B24FF0000922072AD53278F9
:101C6000702A07D0DDF800C08CF0100C5CEA0B0C79
:101C700005D00EE040228DF80420012208E050EA51
:101C8000010306D030238DF804308DF805200222A0
:101C90009146009B83F0080353EA0B030AD150EAF4
:101CA000010201D1620705D530228DF804204FF0E2
:101CB00001097F1E3278582A04D039A20C920CAA4E
:101CC00002920BE03BA2F9E75B46009AFEF780FA2E
:101CD0000C9B9B5C029A521E0292137050EA010206
:101CE000F2D1029804A9081A00F1200B600702D56E
:101CF00024F4803400E001275F4502DDA7EB0B00F0
:101D000000E0002000EB0B01009003984944401ACA
:101D10000390E00306D453462146179A039800F037
:101D2000A9F90544002706E001A85246C05D1799AD
:101D300090476D1C7F1C4F45F6DBE0030CD55346E6
:101D40002146179A039800F095F9054404E03020E5
:101D50005246179990476D1C0099481E0090002923
:101D6000F5DC08E00298029952460078491C02917D
:101D7000179990476D1CBBF10001ABF1010BF1DC31
:101D80005BE100F065F90544761C307800287FF4AB
:101D90000DAE19B02846BDE8F08F000009280100FB
:101DA00030313233343536373839616263646566D1
:101DB0000000000030313233343536373839414293
:101DC0004344454600000000600700D4062708F1A0
:101DD000070020F00700F0E80223804603F0004CE3
:101DE0005FEA0C0001D097A009E0200501D596A07C
:101DF00005E0E00701D095A001E0AFF24C001390A0
:101E0000307823F0004365280CD006DC452809D043
:101E100046281DD047287FD13BE0662818D0672888
:101E20007AD136E00021112F01DB112000E0781C6F
:101E3000CDE9000104A90CA8FFF7EEFCDDE90D01D6
:101E40000C9A4FF0000B07F10109109200914EE03F
:101E50004FF000400097CDE9011004A90CA8FFF74E
:101E6000DBFCDDE90D020C9B0F994FF0000B914656
:101E70001093009211B9791C00EB0109B7EB09002E
:101E800003D4C0F1FF3B07F10109A9EB0700019062
:101E900042E0012F00DA01270021112F01DD11207E
:101EA00000E03846CDE9000104A90CA8FFF7B4FC16
:101EB000DDE90D010C9A00914FF0000BB94610922C
:101EC00021070FD4009A4A4503DA914601E0A9F1AF
:101ED0000109B9F1010F05DD109AA9F10101515C69
:101EE0003029F4D0B84202DA10F1040F03DA0121EC
:101EF000CDE9011010E0002803DC8344A9EB0001C8
:101F000002E0411C494500DD8946A0EB0B00401C66
:101F100001904FF000400290200705D401984845F9
:101F200002DB4FF0FF30019000208DF84B0002984B
:101F30000DF14B07B0F1004F25D002200C902B2063
:101F40000D90029800280CDA404202902D200D904E
:101F500007E00A210298FEF726FA3031029007F8CE
:101F6000011D0C99481E0C900029F2DC02980028F3
:101F7000EFD1791E0D980870307800F0200040F005
:101F8000450007F8020D11A8C01BC01D0290139850
:101F9000007800B1012000EB0901019801EBE0712C
:101FA000029801440398401A401E0390E00306D4AF
:101FB00053462146179A039800F05CF8054413989D
:101FC000007818B15246179990476D1CE00323D54D
:101FD00053462146179A039800F04CF805441BE03D
:101FE000BBF1000F07DB0098584504DD10981799E6
:101FF00010F80B0001E017993020524690470198E5
:102000000BF1010B401E05F10105019004D12E20BA
:102010005246179990476D1CB9F10001A9F10109C9
:10202000DEDC05E017F8010B5246179990476D1C4E
:102030000299481E02900029F4DC53462146179A63
:1020400003989EE62D0000002B00000020000000F9
:102050002DE9F041044600251E461746880404D4A5
:1020600005E039462020B0476D1C641EF9D528468E
:10207000BDE8F0812DE9F041044600251E4690465A
:10208000C80301D5302700E02027880404D505E0E7
:1020900041463846B0476D1C641EF9D52846BDE858
:1020A000F0810A68531C0B6010707047FEF7A4FCA7
:1020B000FFF7E2F9FFF76EF9FFF7AEF93848374955
:1020C0000C2201604FF4E131416000218160C16068
:1020D000C0E904128161C161FFF799F8314E4FF4F4
:1020E000807775150022394634463046FEF771FC7C
:1020F000032000F06FF8012239462046FEF769FC04
:102100000A2000F067F8002239462046FEF761FCFD
:10211000294626462046FEF757FC0028F8D0002422
:1021200003E00220641C00F055F829463046FEF713
:102130004BFC0128F5D000EE104AB8EE400A10EE34
:10214000100AFEF701F99FED181B53EC112BFEF757
:1021500089F89FED171B53EC112BFEF783F8FEF760
:1021600006F915490860FEF7EFF841EC100B0C4832
:1021700053EC102B11A14030FFF71AFB08484030F8
:10218000FEF769F8064982B2642340310448FFF73C
:10219000A3F84FF47A70FEF73BFBA3E7004400403E
:1021A00054000020000002406666666666660640CF
:1021B00000000000C58F913F000000204469737447
:1021C000616E63652028636D2920203D20252E3116
:1021D000660D0A00022800D202200D49401E086048
:1021E0000B49012018390860081F016821F001011E
:1021F000016007492C390A6842F001020A6001684F
:10220000C907FCD0016821F001010160704700009E
:102210002C08004000000000000000000102030440
:102220000607080900000000010203044C22000810
:102230000000002014000000F817000860220008C9
:1022400014000020E404000008180008000000004A
:102250000100000010000000000000000024F40055
:040000050800019559
:00000001FF
